:020000040000fa
:04000800284200008a
:020000040000fa
:04000c008e41000021
:020000040000fa
:04001000ae410000fd
:020000040000fa
:04001400684200003e
:020000040000fa
:04001800484200005a
:020000040000fa
:04001c00f0470000a9
:020000040000fa
:04002000ce410000cd
:020000040000fa
:04002400f0470000a1
:020000040000fa
:04002800f04700009d
:020000040000fa
:04002c005c4700002d
:020000040000fa
:04003000f047000095
:020000040000fa
:04003400f047000091
:020000040000fa
:04003800f04700008d
:020000040000fa
:04003c00f047000089
:020000040000fa
:04004000f047000085
:020000040000fa
:04004400f047000081
:020000040000fa
:04004800f04700007d
:020000040000fa
:04004c00f047000079
:020000040000fa
:04005000f047000075
:020000040000fa
:04005400f047000071
:020000040000fa
:04005800f04700006d
:020000040000fa
:04005c00f047000069
:020000040000fa
:04006000f047000065
:020000040000fa
:04006400f047000061
:020000040000fa
:04006800f04700005d
:020000040000fa
:04006c00f047000059
:020000040000fa
:04007000f047000055
:020000040000fa
:04007400f047000051
:020000040000fa
:04007800f04700004d
:020000040000fa
:04007c00f047000049
:020000040000fa
:04008000f047000045
:020000040000fa
:04008400f047000041
:020000040000fa
:04008800f04700003d
:020000040000fa
:04008c000447000025
:020000040000fa
:04009000f047000035
:020000040000fa
:04009400f047000031
:020000040000fa
:04009800f04700002d
:020000040000fa
:04009c00f047000029
:020000040000fa
:0400a000f047000025
:020000040000fa
:0400a400f047000021
:020000040000fa
:0400a800f04700001d
:020000040000fa
:0400ac00f047000019
:020000040000fa
:0400b000f047000015
:020000040000fa
:0400b400f047000011
:020000040000fa
:0400b800f04700000d
:020000040000fa
:0400bc00f047000009
:020000040000fa
:0400c000f047000005
:020000040000fa
:0400c400f047000001
:020000040000fa
:0400c800f0470000fd
:020000040000fa
:0400cc00f0470000f9
:020000040000fa
:0400d000f0470000f5
:020000040000fa
:0400d400f0470000f1
:020000040000fa
:0400d800f0470000ed
:020000040000fa
:0400dc0036470000a3
:020000040000fa
:0400e000f0470000e5
:020000040000fa
:0400e400f0470000e1
:020000040000fa
:0400e800f0470000dd
:020000040000fa
:0400ec00f0470000d9
:020000040000fa
:0400f000f0470000d5
:020000040000fa
:0400f400f0470000d1
:020000040000fa
:0400f800f0470000cd
:020000040000fa
:0400fc00f0470000c9
:020000040000fa
:04010000f0470000c4
:020000040000fa
:04010400f0470000c0
:020000040000fa
:04010800f0470000bc
:020000040000fa
:04010c00f0470000b8
:020000040000fa
:04011000f0470000b4
:020000040000fa
:04011400f0470000b0
:020000040000fa
:04011800f0470000ac
:020000040000fa
:04011c00f0470000a8
:020000040000fa
:04012000f0470000a4
:020000040000fa
:04012400f0470000a0
:020000040000fa
:04012800f04700009c
:020000040000fa
:04012c00f047000098
:020000040000fa
:04013000f047000094
:020000040000fa
:04013400f047000090
:020000040000fa
:04013800f04700008c
:020000040000fa
:04013c00f047000088
:020000040000fa
:04014000f047000084
:020000040000fa
:04014400f047000080
:020000040000fa
:04014800f04700007c
:020000040000fa
:04014c00f047000078
:020000040000fa
:04015000f047000074
:020000040000fa
:04015400f047000070
:020000040000fa
:04015800f04700006c
:020000040000fa
:04015c00f047000068
:020000040000fa
:04016000f047000064
:020000040000fa
:04016400f047000060
:020000040000fa
:04016800f04700005c
:020000040000fa
:04016c00f047000058
:020000040000fa
:04017000f047000054
:020000040000fa
:04017400f047000050
:020000040000fa
:04017800f04700004c
:020000040000fa
:04017c00f047000048
:020000040000fa
:04018000f047000044
:020000040000fa
:04018400f047000040
:020000040000fa
:04018800f04700003c
:020000040000fa
:04018c00f047000038
:020000040000fa
:04019000f047000034
:020000040000fa
:04019400f047000030
:020000040000fa
:04019800f04700002c
:020000040000fa
:04019c00f047000028
:020000040000fa
:0401a000f047000024
:020000040000fa
:0401a400f047000020
:020000040000fa
:0401a800f04700001c
:020000040000fa
:0401ac00f047000018
:020000040000fa
:0401b000f047000014
:020000040000fa
:0401b400f047000010
:020000040000fa
:0401b800f04700000c
:020000040000fa
:0401bc00f047000008
:020000040000fa
:0401c000f047000004
:020000040000fa
:0401c400f047000000
:020000040000fa
:0401c800f0470000fc
:020000040000fa
:0401cc00f0470000f8
:020000040000fa
:0401d000f0470000f4
:020000040000fa
:0401d400f0470000f0
:020000040000fa
:0401d800f0470000ec
:020000040000fa
:0401dc00f0470000e8
:020000040000fa
:0401e000f0470000e4
:020000040000fa
:0401e400f0470000e0
:020000040000fa
:0401e800f0470000dc
:020000040000fa
:0401ec00f0470000d8
:020000040000fa
:0401f000f0470000d4
:020000040000fa
:0401f400f0470000d0
:020000040000fa
:0401f800f0470000cc
:020000040000fa
:0401fc00f0470000c8
:020000040000fa
:04020000f0470000c3
:020000040000fa
:04020400f0470000bf
:020000040000fa
:04020800f0470000bb
:020000040000fa
:04020c00f0470000b7
:020000040000fa
:04021000f0470000b3
:020000040000fa
:04021400f0470000af
:020000040000fa
:04021800f0470000ab
:020000040000fa
:04021c00f0470000a7
:020000040000fa
:04022000f0470000a3
:020000040000fa
:04022400f04700009f
:020000040000fa
:04022800f04700009b
:020000040000fa
:04022c00f047000097
:020000040000fa
:04023000f047000093
:020000040000fa
:04023400f04700008f
:020000040000fa
:04023800f04700008b
:020000040000fa
:04023c00f047000087
:020000040000fa
:04024000f047000083
:020000040000fa
:04024400f04700007f
:020000040000fa
:04024800f04700007b
:020000040000fa
:04024c00f047000077
:020000040000fa
:04025000f047000073
:020000040000fa
:04025400f04700006f
:020000040000fa
:04025800f04700006b
:020000040000fa
:04025c00f047000067
:020000040000fa
:04026000f047000063
:020000040000fa
:04026400f04700005f
:020000040000fa
:04026800f04700005b
:020000040000fa
:04026c00f047000057
:020000040000fa
:04027000f047000053
:020000040000fa
:04027400f04700004f
:020000040000fa
:04027800f04700004b
:020000040000fa
:04027c00f047000047
:020000040000fa
:04028000f047000043
:020000040000fa
:04028400f04700003f
:020000040000fa
:04028800f04700003b
:020000040000fa
:04028c00f047000037
:020000040000fa
:04029000f047000033
:020000040000fa
:04029400f04700002f
:020000040000fa
:04029800f04700002b
:020000040000fa
:04029c00f047000027
:020000040000fa
:0402a000f047000023
:020000040000fa
:0402a400f04700001f
:020000040000fa
:0402a800f04700001b
:020000040000fa
:0402ac00f047000017
:020000040000fa
:0402b000f047000013
:020000040000fa
:0402b400f04700000f
:020000040000fa
:0402b800f04700000b
:020000040000fa
:0402bc00f047000007
:020000040000fa
:0402c000f047000003
:020000040000fa
:0402c400f0470000ff
:020000040000fa
:0402c800f0470000fb
:020000040000fa
:0402cc00f0470000f7
:020000040000fa
:0402d000f0470000f3
:020000040000fa
:0402d400f0470000ef
:020000040000fa
:0402d800f0470000eb
:020000040000fa
:0402dc00f0470000e7
:020000040000fa
:0402e000f0470000e3
:020000040000fa
:0402e400f0470000df
:020000040000fa
:0402e800f0470000db
:020000040000fa
:0402ec00f0470000d7
:020000040000fa
:0402f000f0470000d3
:020000040000fa
:0402f400f0470000cf
:020000040000fa
:0402f800f0470000cb
:020000040000fa
:0402fc00f0470000c7
:020000040000fa
:04030000f0470000c2
:020000040000fa
:04030400f0470000be
:020000040000fa
:04030800f0470000ba
:020000040000fa
:04030c00f0470000b6
:020000040000fa
:04031000f0470000b2
:020000040000fa
:04031400f0470000ae
:020000040000fa
:04031800f0470000aa
:020000040000fa
:04031c00f0470000a6
:020000040000fa
:04032000f0470000a2
:020000040000fa
:04032400f04700009e
:020000040000fa
:04032800f04700009a
:020000040000fa
:04032c00f047000096
:020000040000fa
:04033000f047000092
:020000040000fa
:04033400f04700008e
:020000040000fa
:107000000e46040000000000000000000200000026
:107010000000000002000000020000000400000068
:0c70200000000000000000000000000064
:020000040000fa
:10702c00123b0000403b00007a3b0000d83b0000c4
:10703c006c3e0000083e0000000000000000000054
:10704c00000000000000000000000000e63b000013
:10705c008c3c0000203e0000383e0000503e0000fa
:10706c00203d0000ea3d00007c3e0000943e000004
:10707c00ac3e0000c43e0000dc3e000000000000fe
:10708c00f43e00000c3f0000000100000203000071
:10709c00040500000607000008000000184400006a
:1070ac002e4400003e4400004a44000054440000ba
:1070bc00044400000e440000604400007e440000c4
:0470cc0000000000c0
:020000040000fa
:1070d0000200fa00000f7800a0842b001e00400080
:1070e000104078000080fa00000006000400fa005a
:1070f000004f7800110798001e80fb00e10f500040
:107100000a003a001e009000416220001100980021
:107110001e00900081c0b300014878001e0090005e
:1071200021c0b300114098000a0037001e009000f3
:107130008000eb00110098001e0090008040eb00e2
:10714000014878001e0090008040eb00114098003c
:10715000000000000080fa00000006000200fa00b3
:107160000040eb00004f7800070037001e80fb0056
:10717000c200dd00e0012100008040008040eb0003
:10718000014878001e4fe8001e4078000004e0002f
:10719000f6ff32000080fa00000006000400fa004a
:1071a00020479800e0808000804078002e409000ca
:1071b00080cf500003003a000040eb00004f780001
:1071c0000d0037000040eb00004f78000100370051
:1071d0001e4fe8001e80fb00c200dd00c001210040
:1071e0000080400010007800804078002e40900021
:1071f00080cf5000f6ff3a001e4078000080fa0071
:10720000000006000200fa00000f78001e0078005f
:10721000e10f500003003a002066a90000000000c2
:1072200001003700000000000080fa0000000600a6
:107230000200fa00004f78001e80fb00e10f5000b2
:1072400003003a001d06a8000000000001003700fe
:10725000000000000080fa00000006000400fa00b0
:10726000100798001e009000e10f500006003a0041
:1072700000318000c8800a00000000000080fb0090
:10728000000f7800030037000000eb00000f7800cb
:10729000000000001e0078000080fa0000000600d8
:1072a0000a00fa00889fbe008a9fbe00300798003f
:1072b000410798000040eb00004f78003e0090002e
:1072c00090007800110798003e0090000080e800d0
:1072d00090007800210798003e0090006400400074
:1072e00010007800004078006f4060006f40600040
:1072f0006f406000ce0090000080fb006f006000d7
:107300004200dd00a10590003afc2f000a856500cf
:107310000a007000a00098003e0090006400400049
:1073200010007800700060004400de00004078002b
:10733000e14060004e0090008180fb00e180600031
:10734000200590000a00a1008a80700021009800aa
:107350003e00900064004000900078000002200091
:10736000008060004500de0000407800e1406000e1
:107370004e0090008180fb00e18060008180400031
:10738000200590000a10a1008a807000210098005a
:107390003e0090006400400090007800000420004f
:1073a000008060004600de0000407800e1406000a0
:1073b0004e0090008180fb00e1806000c708dd0086
:1073c000200590000a70a1008a80700021009800ba
:1073d0003e0090006400400090007800000820000b
:1073e000008060004700de0000407800e14060005f
:1073f0004e0090008180fb00e1806000c608dd0047
:10740000200590000a60a1008a8070002100980089
:107410004e00900020009000610060000000e0003d
:1074200010003a001e0090006101b800f07f2000bb
:10743000010020000202780003017800800178003a
:1074400081007800030062008100610081047800ff
:10745000000478000800be004e0190000089be00c4
:107460002d0037001e0090006104b800f07f20005e
:1074700001002000080578000904780080047800e5
:1074800081007800090065008100640081037800b4
:10749000000378000600be00c204dd0008002000e2
:1074a0002e0090006103b800f0ff210001002000d1
:1074b00006057800070378008003780081007800d3
:1074c00007006500810063008102780000027800f7
:1074d0004528dd00cb20de00810070004520dd0066
:1074e00000027400818274001e0090004b00de00d8
:1074f0008000eb00000078007f0060008001eb005e
:10750000000178000200be0000007200818072005d
:107510004e0190000089be004e00900020009000b7
:1075200052800a00000000000080fb00e8fe070017
:10753000004f7800820020008000eb0080062100d0
:10754000f40307009e80fb003e00900068004000ae
:107550000101780080007800800621009306070072
:107560004e00900081062100310098004f05be00ba
:107570004f04be000080fa00000006000000fa0080
:1075800000102000f030880000402000e03088002b
:107590000080fa00000006000000fa00813380003d
:1075a00000fe2f00008060000000a00080338800f3
:1075b0008026ef008226ef008426ef008626ef006b
:1075c00070e6a8000080fa00000006000000fa0043
:1075d000e0012000302e880070702000202e8800ee
:1075e0000080fa00000006000000fa00e0e8230036
:1075f000c101070060ea2300cb010700e0eb230094
:10760000d501070060ed2300df010700e0ee230055
:10761000e901070060f02300f30107000080fa0091
:10762000000006000000fa00c1e5a80000482000a4
:10763000102e8800400020002e0007000000e0000f
:107640000d003a0080022100603088000076290099
:10765000002e8800c265a900c285a900dbff0700d3
:10766000c6ff0700ccff0700dfff0700bbfe0700d7
:10767000600020001f0007000080fa0000000600e4
:107680000000fa00400020001a0007000000e0009f
:1076900015003a0000762000002e88008049200066
:1076a000102e8800e0032000302e8800f0f020002b
:1076b000202e880000062000f030880000402000c6
:1076c000e03088008133800000fe2f0000806000e1
:1076d000803388008026ef008226ef008426ef00aa
:1076e0008626ef0070e6a900c1e5a9000080fa0037
:1076f000000006000400fa00100798000000eb00ec
:10770000000f78002a000700e40f50000600320046
:107710001e009000e10f5000030032001e00900098
:10772000e40f50001d003a001e0090000040780059
:10773000674060000080fb00670060004800dd00db
:10774000122e8000f18f2f00810061000100700077
:10775000102e880009003700e12e80000000210073
:10776000008060000000e0000400320020002000e3
:10777000000f7800000000000a003700102e800083
:1077800075800a00000000008080fb001e00900051
:10779000808f5000f0ff3a000200370010002000f8
:1077a000000f78001e0078000080fa00000006003c
:1077b0000000fa00102e800075800a000000000012
:1077c0000080fb000080fa00000006000a00fa00ba
:1077d000400798000040eb00104798000040eb0085
:1077e000004f7800440037001e80fb00c200dd001f
:1077f000c001210000804000100078002047980060
:1078000064004700800078002e40900037fe07009b
:107810002e4090000080fb00ee00070030479800eb
:107820003e4090000080fb00610060000040780056
:107830000004e0002f0032003e00900010007800ad
:107840000000e000300032003e00900010007800a0
:10785000ce00900092fe07002e40900074fe0700bc
:107860001e80fb00c200dd000181e800c101210093
:1078700081004100914078008140e8004201dd0034
:10788000e001210000004100014878001e80fb005b
:107890004200dd008080e800c0012100008040003f
:1078a000904078005e40900080cf50000600390084
:1078b0001e80fb00c200dd00e001210000804000ce
:1078c0008040eb00014878003e4090000080fb00c3
:1078d000680060000000e000030032002e409000cd
:1078e0000080fb0047fe070010c0b300104798005f
:1078f000060037001e4fe8001e4078000004e0003c
:10790000b9ff320001003700000000001e40900067
:107910000080fa00000006000c00fa004007980002
:10792000510798000040eb00004f7800e40047004a
:107930004e00900000407800ecfd07004e009000e3
:10794000a4000700104798004e0090000040780007
:1079500012fe0700204798001e4090000080fb00a8
:1079600061006000004078000004e0003100320057
:107970003e009000100078000000e0002d00320072
:107980003e00900010007800de00900044fe0700ea
:107990004e0090000040780025fe07002e40900029
:1079a0000080fb00c200dd000181e800c101210070
:1079b00081004100914078008140e8004201dd00f3
:1079c000e001210000004100014878002e409000b5
:1079d0000080fb004200dd008080e800c001210043
:1079e00000804000904078005e40900080cf5000c2
:1079f000070039002e4090000080fb00c200dd002f
:107a0000e0012100008040008040eb000148780048
:107a10001e4090000080fb00680060000000e00055
:107a2000020032004e009000f6fd070010c0b300c7
:107a3000004f78001e4078000080fa000000060029
:107a40000c00fa000040eb00304798000040eb00cb
:107a5000004f78000040eb00104798000040eb001a
:107a6000204798000040eb00004f7800530037009b
:107a70001e80fb00c200dd00c0012100008040002c
:107a800010007800304798006800470080007800b8
:107a90003e40900095fd07003e4090000080fb00b6
:107aa0004c000700404798004e4090000080fb00cb
:107ab00061006000004078000004e0003e003200f9
:107ac0004e4090000080fb00680060000000e00075
:107ad000030032009e4890001147980032003700a2
:107ae0003e4090000080fb00dcfd0700300798005e
:107af0001e80fb004200dd008080e800c001210004
:107b000000804000104078008080fb003e00900024
:107b1000808f50000d0036009e4890003e0090007f
:107b20000040780080c040001e80fb004200dd0065
:107b30000081e800c00121000000410010407800f1
:107b400000c0500010479800170037001e80fb004f
:107b50004200dd008080e800c0012100008040007c
:107b6000104078008080fb003e009000808f500025
:107b70000b0031003e009000804078001e80fb002a
:107b80004200dd000081e800c0012100000041004a
:107b90001040780000c050001047980002003700e5
:107ba0009e48900011479800ae4090001e40900003
:107bb00000c04000204798001e4fe8001e4078009b
:107bc0000004e000aaff32002e4090000080fa007e
:107bd000000006000400fa00100798001e00900044
:107be000e10f500004003a000031800000407800ae
:107bf000694f6000030037000040eb00004f780041
:107c0000000000001e4078000080fa00000006001e
:107c10000000fa00b02f800055800a00000000002c
:107c20000080fb0000f0a7000000ea000000ea006e
:107c30004f00de00004078000080fa0000000600df
:107c40000000fa00b02f800033800a00000000001e
:107c50000080fb0000f0a7000000ea000000ea003e
:107c60004f00de00004078000080fa0000000600af
:107c70000000fa00b02f800011800a000000000010
:107c80000080fb0000f0a7000000ea000000ea000e
:107c90004f00de00004078000080fa00000006007f
:107ca0000200fa000040eb00004f7800f4c5bf006e
:107cb0000004e00005003200f4c5bf000004e0004d
:107cc0000200350010c0b300004f78001e4078005d
:107cd0000080fa00000006000000fa00ddc5a900df
:107ce000dfc5a8002328a8001000200081fe07009f
:107cf0000080fa00000006000200fa00000f780081
:107d00001e0078000000e000020032009e007800b3
:107d1000018088000080fa00000006000000fa00e0
:107d20000080fa00000006000200fa00000f780050
:107d30001e0078000000e000020032009e00780083
:107d4000118088000080fa00000006000000fa00a0
:107d50000080fa00000006000200fa00000f780020
:107d60001e0078000000e000020032009e00780053
:107d7000218088000080fa00000006000000fa0060
:107d80000080fa00000006000200fa00000f7800f0
:107d90001e0078000000e000020032009e00780023
:107da000318088000080fa00000006000000fa0020
:107db0000080fa00000006000200fa00000f7800c0
:107dc0001e0078000000e000020032009e007800f3
:107dd000418088000080fa00000006000000fa00e0
:107de0000080fa00000006000200fa00000f780090
:107df0001e0078000000e000020032009e007800c3
:107e0000518088000080fa00000006000000fa009f
:107e10000080fa00000006000000fa00e12e800059
:107e200000002800008060000000e0000600320032
:107e3000008080000000e00002003200008080002e
:107e400000000100dde5a900e12e80000000220015
:107e5000008060000000e00006003200208080000a
:107e60000000e000020032002080800000000100dd
:107e7000dda5a900e02e8000680060000000e000a1
:107e800006003200308080000000e0000200320076
:107e90003080800000000100dc65a900e12e800038
:107ea00000002100008060000000e00006003200b9
:107eb000408080000000e00002003200408080002e
:107ec00000000100dd85a90000318000680060002d
:107ed0000000e00006003200508080000000e0005a
:107ee0000200320050808000000001002066a900de
:107ef0000080fa00000006000400fa001007980055
:107f00000040eb00004f78001e0090000000e000f1
:107f100002003d0010c0b300004f78001e40780002
:107f20000080fa00000006000400fa001007980024
:107f30000040eb00004f78009e00900000002400fd
:107f4000008060000000e0000200320010c0b300ba
:107f5000004f78001e4078000080fa000000060004
:107f60000400fa00100798000040eb00004f780072
:107f70009e00900000202000008060000000e000d3
:107f80000200320010c0b300004f78001e4078009d
:107f90000080fa00000006000400fa0010079800b4
:107fa0000040eb00004f78009e0090000008200089
:107fb000008060000000e0000200320010c0b3004a
:107fc000004f78001e4078000080fa000000060094
:107fd0000400fa00100798000040eb00004f780002
:107fe0009e00900000042000008060000000e0007f
:107ff0000200320010c0b300004f78001e4078002d
:108000000080fa00000006000400fa001007980043
:108010000040eb00004f78001e00900070006000f0
:108020000000e0000200320010c0b300004f7800f2
:108030001e4078000080fa00000006000200fa00ee
:10804000000f78009e80ea00007c800000806000c5
:10805000007c88000080fa00000006000000fa00a2
:10806000007c80000080fa00000006000200fa0098
:10807000faff0700000f78001e0078009eff07003f
:108080000004e0000200320000002800ebff0700bf
:108090001e007800a4ff07000004e0000200320088
:1080a00000002400e5ff07001e007800acff070079
:1080b0000004e0000200320000202000dfff070083
:1080c0001e007800b4ff07000004e0000200320048
:1080d00000082000d9ff07001e007800bcff070041
:1080e0000004e0000200320000042000d3ff07007b
:1080f0001e007800c4ff07000004e0000200320008
:1081000000012000cdff07000080fa0000000600fb
:108110000000fa00802fef000080fa000000060047
:108120000000fa00c3e8a800000000000000000002
:108130000080fa00000006000000fa00c3e8a90071
:1081400000000000000000000080fa0000000600af
:108150000000fa00f8ff070002030700f0ff070025
:10816000801824006100070025a8a8000080fa00fc
:10817000000006000000fa0000002800e00288006d
:108180000080fa00000006000000fa000000240051
:108190000003880010c0b3000cf0b7000080fa00a4
:1081a000000006000000fa000c70ef000000000064
:1081b00040038000610060000000e000fcff32002e
:1081c00080002000200388000080fa0000000600e4
:1081d0000200fa000040eb00004f780040038000ee
:1081e00061006000004078000004e00002003200fe
:1081f00010c0b300004f78001e4078000080fa00e5
:10820000000006000000fa000cd0bf000080fa0059
:10821000000006000400fa006000b800008fbe00f5
:10822000b00380008000eb00c000dd0000002000f3
:10823000008fbe00a00380008000eb003e017000b4
:10824000ae8170000200be000080fa00000006004f
:108250000400fa006000b800008fbe00d003800068
:108260008000eb00c000dd0000002000008fbe0099
:10827000c00380008000eb003e017000ae81700002
:108280000200be000080fa00000006000200fa00b2
:108290000000eb00000f780041038000100e20006a
:1082a000008f60001e0078000080fa0000000600c9
:1082b0000400fa006000b800008fbe007003800068
:1082c0008000eb00c000dd0000002000008fbe0039
:1082d000600380008000eb003e017000ae81700002
:1082e0000200be000080fa00000006000200fa0052
:1082f000000f78001e0078000000e000020032004d
:108300009e007800918088000080fa00000006003e
:0c8310000000fa000080fa0000000600e7
:020000040000fa
:10831c003600f800809fbe00829fbe00849fbe0086
:10832c00869fbe000000fa00c068a9002000200053
:10833c00ff0207000080fa004f03be004f02be0090
:10834c004f01be004f00be003600f9000040060091
:10835c003600f800809fbe00829fbe00849fbe0046
:10836c00869fbe000000fa00c608a900700020001d
:10837c00ef0207000080fa004f03be004f02be0060
:10838c004f01be004f00be003600f9000040060051
:10839c003600f800809fbe00829fbe00849fbe0006
:1083ac00869fbe000000fa0020468000700060002e
:1083bc000000e00003003200c488a900a0002000e7
:1083cc00db020700214680000002200000806000d4
:1083dc000000e00003003200c4a8a90090002000b7
:1083ec00d3020700214680000010200000806000ae
:1083fc000000e00003003200c508a900c000200006
:10840c00cb02070021468000002020000080600085
:10841c000000e00003003200c528a900d0002000b5
:10842c00c302070020468000610060000000e000ed
:10843c0003003200c408a900b0002000bc020700f1
:10844c00ffff37003600f800809fbe00829fbe0001
:10845c00849fbe00869fbe000000fa00c028a900c1
:10846c000000eb00b20207000080fa004f03be00d0
:10847c004f02be004f01be004f00be003600f90097
:10848c00004006003600f800809fbe00829fbe00b0
:10849c00849fbe00869fbe000000fa00c088a90021
:1084ac0030002000a20207000080fa004f03be003b
:1084bc004f02be004f01be004f00be003600f90057
:1084cc00004006003600f800809fbe00829fbe0070
:1084dc00849fbe00869fbe000000fa009b0207002e
:1084ec00c048a90010002000910207000080fa008b
:1084fc004f03be004f02be004f01be004f00be0036
:08850c003600f90000400600f2
:020000040000fa
:10851400889fbe008a9fbe00800478000200e000ad
:108524005b00320001407800814c78008281440075
:10853400f1f99f00e20f5100550036009144980074
:10854400a1449800e1f99f00d1f99f00e60f510082
:108554004f003600b1449800c1f99f00e80f510064
:108564004b0036000905ea00630565000a844400ef
:108574000a055100c1ff2f00010565000080fb00c2
:108584008000eb0012102000131020008d02070061
:10859400008cbe000a01440060b99f0071b99f00bd
:1085a400e80f55003a003600200498003104980082
:1085b400400498005104980020b99f0031b99f00ed
:1085c40040b99f0051b99f00f80f550030003600a4
:1085d4006004980071049800000c9800110c980035
:1085e400200c9800310c9800400c9800510c980015
:1085f40020b19f0031b19f0040b19f0051b19f0055
:1086040060b19f0071b19f0000b99f0011b99f0034
:10861400640164007801410002044400020555002d
:108624006011b8000203be000002be000403be00d5
:108634006022b800000072008180720002017300a1
:108644008381730010003700009cbe000294be00ba
:108654004004980051049800620498007304980040
:10866400000c9800110c9800220c9800330c980010
:10867400400c9800510c9800620c9800730c980000
:108684000a02b1000802b000ff0f5500eeff3e00e1
:10869400090078004f05be004f04be00000006002c
:020000040000fa
:1086a400a1028800800478000000eb001f0037005e
:1086b400e284440054a0b4009905ba00e284440062
:1086c40054a0b4009906ba00e284440054a0b40053
:1086d4000006eb00476fde00fd07b200ae01880024
:1086e400636ce10003003a000ad801000000eb00cb
:1086f4000e003700606ce10008003a00004deb000a
:108704000a05e800020039003420ec000af0a00059
:108714008b05e900f9ff3e00040037006168e100c1
:10872400010032000086eb000b00070019c7ba00f5
:108734001905ba000e04e00003003a000a00e00044
:10874400dbff3a0000000600fe07b200ae0288001c
:108754008a047800f5ff37000cd0a300e20f4d0027
:108764001c003b0089027800354dba000a05e80078
:10877400020039003420ec000af0a0008b05e90067
:108784000f003200254dba000a05e8000200390046
:108794003420ec000af0a0008b05e9000800320048
:1087a4000c00e0000600320015cdba000a05e8000e
:1087b400020039003420ec000af0a0008b05e90027
:1087c4008984e80054a0b4000b00e000e2ff3a0002
:1087d400000006009902ba00055d78008b05e900e7
:1087e400f7ff3200c82ade00055d78008b05e9003a
:1087f400f3ff32000c00e000f1ff320019ddba0093
:04880400eeff37004c
:020000040000fa
:108808000000fa00400880008000eb000080fa00b9
:10881800000006000000fa00200880008000eb003d
:108828000080fa00000006000000fa0000012000a5
:10883800000888000421ef00300d2300400888005c
:10884800004924002b0007000a0007000080fa00f6
:10885800000006000000fa000c0007000021ef00ed
:108868000421ef000080eb00400888000080fa0037
:10887800000006000000fa000028a9002028a8002f
:1088880001e1a8000080fa00000006000000fa00dc
:1088980001e1a9002028a9000080fa0000000600d4
:1088a8000400fa00008fbe001e007800400888000f
:1088b8000080fa00000006000200fa00000f7800ad
:1088c8001e00780000407800674060000080fb00d0
:1088d800670060004400dd0002428000f1f82f00cc
:1088e8008100610001007000004288000080fa00e9
:1088f800000006000200fa00000f78001e00780051
:108908000000e000020032009e007800118188001b
:108918000080fa00000006000000fa000080fa005b
:10892800000006000200fa00000f78009e007800a0
:10893800410888000080fa00000006000000fa00e4
:1089480010002300307c880020032000407c880031
:108958008c2fef0010012000507c880010102000a0
:10896800707c880060092000807c8800100420004a
:10897800907c880040502800d07c8800b82fef00f9
:10898800ba2fef00be2fef00002def00a02fef0051
:10899800a42fef00a62fef00a82fef00aa2fef00bb
:1089a800ae2fef00b02fef00b22fef001200200023
:1089b80080072000a109200053f820008049780092
:1089c8008149780082497800120020006004200064
:1089d8007105200043f8200080497800814978001b
:1089e8008249780000000000207c8000610060005f
:1089f8000000e000fcff3a0000000000217c80003d
:108a080000022000008060000000e000fbff320050
:108a18000080fa00000006000000fa00707c800068
:108a2800ee800a00000000000080fb0000f0a700b4
:108a38000000ea000000ea004f00de000040780075
:108a48000080fa00000006000000fa002081800083
:108a58000000e0001100320020818000d1bc2a0013
:108a680001087800208180000080e800d1bc2a003d
:108a7800010878002081800064004000d1bc2a00f1
:108a8800010878002081800066004000d1bc2a00df
:108a9800010878000000fe00010037000000000017
:108aa8000080fa00000006000000fa001701070025
:108ab800d072800066800a00000000000004a20056
:108ac800614060000080fb00610060004600dd003e
:108ad800d17280000160a10001007000d07288008e
:108ae80000202c00b1be200020010700f0ff370055
:108af8000000fa00d0fb07000004e0000d0032007f
:108b0800410121001000200081fb07000004e00063
:108b180008003200400121001001be0070002b0047
:108b280001002000800f5100818f590001003a0098
:108b3800c5ff07000080fa00000006000000fa00e8
:108b4800062eef00222eef003e2eef005a2eef00e9
:108b5800f0012000107088000080eb00f0708800a1
:108b68000080eb00d0718800f0eb2f00b072880015
:108b78000a2eef00262eef00422eef005e2eef00a9
:108b88000c2eef00282eef00442eef00602eef0091
:108b9800082eef00242eef00402eef005c2eef0091
:108ba800f001200000708800f0092000e0708800c3
:108bb800f00c2000c071880000c02200a07288005c
:108bc8000000eb0051052000b1468800a10a2000f2
:108bd800b14688000068880090c4b30038edb7003b
:108be800416d800000fc2f00008060005001b30040
:108bf800406d88000080200051052000b1468800a3
:108c0800a10a2000b1468800006888000080fa00a8
:048c18000000060052
:020000040000fa
:108c1c000f0721000eff22000e018800000000004b
:108c2c00000020000000e0000200320000012000e3
:108c3c002002880014000700e80007000000e00094
:108c4c0003003a0060652400010020000200370098
:108c5c000000200001002000810f70000100320094
:108c6c008dfe0700000020000000e0000200320032
:108c7c000000020000000000584502000000000047
:108c8c000040da000000fe00200520000000e0009b
:108c9c000200320000202000900188000000060035
:020000040000fa
:108cac006810000008000000800000002810000080
:108cbc002000000080000000001000000c000000ec
:108ccc00800000001c100000040000008200000066
:108cdc0001000000000000000c1000000800000063
:108cec008000000048100000200000008000000000
:108cfc00201000000200000082000000ffff0000b6
:108d0c00221000000200000080000000241000006f
:108d1c00020000008200000000200000141000007f
:0c8d2c00080000008000000000000000b3
:020000040000fa
:108d38000000fe005841020000000000821f780079
:108d480072808000000011000200200081001900dc
:108d58004f017800000006000000fe00801f780028
:108d6800811f7800821f780060038000801f7800d0
:108d780058410200000000004f0178000201500035
:108d88000201e900728088004f017800cf00780066
:108d98004f007800000006000000fa00b142800091
:108da800f0f82f00008060000040a000b04288006a
:108db80001428000f0f82f00008060000040a00011
:108dc800004288000080fa00000006000000fa0057
:108dd800b1428000f0f82f00008060000060a00021
:108de800b042880001428000f0f82f000080600047
:108df8000060a000004288000080fa000000060021
:020000040000fa
:108e08003600f800809fbe00829fbe00849fbe008f
:108e1800869fbe000000fa00e12e800000002400ba
:108e2800008060000000e000060032001080800032
:108e38000000e00002003200108080000000010005
:108e4800ddc5a9000328a9000080fa004f03be0071
:108e58004f02be004f01be004f00be003600f900b1
:108e6800004006003600f800809fbe00829fbe00ca
:108e7800849fbe00869fbe000000fa00908080009c
:108e88000000e00002003200908080000000010035
:108e980005a8a9000080fa004f03be004f02be00db
:108ea8004f01be004f00be003600f900004006002a
:108eb8003600f800809fbe00829fbe00849fbe00df
:108ec800869fbe000000fa0009ff0700108180009d
:108ed800000001000028a9000080fa004f03be002e
:108ee8004f02be004f01be004f00be003600f90021
:048ef8000040060030
:020000040000fa
:108efc000000fa00c3e8a800000000000000000019
:108f0c000080fa00000006000000fa008afe07004c
:108f1c0009ff0700c0f907008afc070041fe0700a3
:108f2c00f3ff07009bff07000080fa00000006001b
:108f3c000200fa00000f78009e0078000181880082
:108f4c000000fe000080fa00000006000000fa009d
:108f5c0080042100800778000006210000018800b1
:088f6c000080fa00000006007d
:020000040000fa
:108f7400f03fb1000180b10006003500ee030900a6
:108f840000000000403fb1000180b100fbff3d0044
:108f94001000b000203fb00002003500008009003e
:088fa4000000000000000600bf
:020000040000fa
:108fac008001780002003700b15978000201e90015
:0c8fbc000200e000fcff3a00000006008c
:020000040000fa
:108fc800020ab900001bb9000200b8008100420083
:088fd8008100430000000600c7
:020000040000fa
:088fe0000040da000000fe0071
:020000040000fa
:048fe8000000050080
:020000040000fa
:020000040001f9
:045e0000f77fff0029
:020000040000fa
:020000040001f9
:045e2000f8ffff0088
:020000040000fa
:020000040001f9
:045e300078ffff00f8
:020000040000fa
:020000040001f9
:045e38007bffff00ed
:020000040000fa
:020000040001f9
:045e4000ff7fff00e1
:020000040000fa
:020000040001f9
:045e4800ffffff0059
:020000040000fa
:020000040001f9
:045e5000dfffff0071
:020000040000fa
:020000040001f9
:045e58000000ff0047
:020000040000fa
:020000040001f9
:045e60000000ff003f
:020000040000fa
:020000040001f9
:045e68000000ff0037
:020000040000fa
:020000040001f9
:045e70000000ff002f
:020000040000fa
:020000040001f9
:045e7800ffffff0029
:020000040000fa
:020000040001f9
:045e8000fffcff0024
:020000040000fa
:020000040001f9
:045e8800ffffff0019
:020000040000fa
:020000040001f9
:045ff800ffffff00a8
:020000040000fa
:020000040100f9
:04300000ffffff00cf
:00000001FF
